{
  "_format": "hh-sol-artifact-1",
  "contractName": "StudentRegistry",
  "sourceName": "contracts/studentRegistry.sol",
  "abi": [
    {
      "inputs": [
        {
          "internalType": "uint256",
          "name": "_studentNumber",
          "type": "uint256"
        }
      ],
      "name": "addStudent",
      "outputs": [],
      "stateMutability": "nonpayable",
      "type": "function"
    },
    {
      "inputs": [],
      "name": "getScore",
      "outputs": [
        {
          "internalType": "uint8",
          "name": "_score",
          "type": "uint8"
        }
      ],
      "stateMutability": "nonpayable",
      "type": "function"
    }
  ],
  "bytecode": "0x608060405234801561001057600080fd5b50610152806100206000396000f3fe608060405234801561001057600080fd5b50600436106100365760003560e01c80630cce974a1461003b578063afd8206714610057575b600080fd5b610055600480360381019061005091906100b8565b610075565b005b61005f610078565b60405161006c9190610101565b60405180910390f35b50565b600090565b600080fd5b6000819050919050565b61009581610082565b81146100a057600080fd5b50565b6000813590506100b28161008c565b92915050565b6000602082840312156100ce576100cd61007d565b5b60006100dc848285016100a3565b91505092915050565b600060ff82169050919050565b6100fb816100e5565b82525050565b600060208201905061011660008301846100f2565b9291505056fea26469706673582212202cb0e307e69dbed988c1f5a444a8b69e5050d7c3298bc2084caad5d5160a720964736f6c63430008090033",
  "linkReferences": {},
  "deployedLinkReferences": {}
}